:020000040800F2
:10000000000002204995000899950008999500087C
:10001000999500089995000899950008000000003E
:10002000000000000000000000000000999500089A
:10003000999500080000000099950008698600085D
:1000400099950008999500089995000899950008D8
:1000500099950008999500082993000831930008A4
:1000600039930008419300084993000899950008C6
:1000700099950008999500089995000899950008A8
:100080009995000899950008999500089995000898
:1000900099950008999500089995000851930008D2
:1000A000253D00083D3C0008393D0008613C000842
:1000B000753C0008893C00089D3C0008B5370008E5
:1000C000C1370008CD370008D937000899950008D6
:1000D0009995000891910008A9910008C591000820
:1000E0006993000899950008ADAC00084D3D0008E3
:1000F000ED3C0008613D0008113D0008999500089D
:100100009995000899950008B13C00089995000858
:10011000E1910008F9910008C53C0008D93C0008AD
:1001200099950008999500089995000899950008F7
:100130009995000800000000000000009995000853
:10014000999500089995000899950008A1AC0008B8
:100150009995000899950008999500081192000852
:10016000E5370008F13700089995000899950008CF
:1001700099950008999500089995000800000000DD
:100180000000000099950008000000000000000039
:1001900099950008000000000000000099950008F3
:1001A0000000000000000000000000009995000819
:1001B0009995000899950008999500089995000867
:0401C0009995000805
:1001D000034613F8012B002AFBD1181A0138704787
:1001E00001F0FF01102A2BDB10F0070F08D010F8E8
:1001F000013B013A8B422DD010F0070F42B3F6D1EC
:10020000F0B441EA012141EA014122F007047FF004
:1002100000070023F0E80256083C85EA010586EA5B
:10022000010685FA47F5A3FA87F586FA47F6A5FA97
:1002300087F68EB9EED1F0BC01F0FF0102F00702A3
:1002400032B110F8013B013A83EA010313B1F8D14E
:100250000020704701387047002D06BF354603382F
:10026000073815F0010F07D1013015F4807F02BF68
:10027000013015F4C03F0130F0BC0138704700BFB9
:1002800081F0004102E000BF83F0004330B54FEA47
:1002900041044FEA430594EA050F08BF90EA020FB4
:1002A0001FBF54EA000C55EA020C7FEA645C7FEA47
:1002B000655C00F0E2804FEA5454D4EB5555B8BF6A
:1002C0006D420CDD2C4480EA020281EA030382EADB
:1002D000000083EA010180EA020281EA0303362D6D
:1002E00088BF30BD11F0004F4FEA01314FF4801C40
:1002F0004CEA113102D0404261EB410113F0004F52
:100300004FEA03334CEA133302D0524263EB430308
:1003100094EA050F00F0A780A4F10104D5F1200EA6
:100320000DDB02FA0EFC22FA05F2801841F1000101
:1003300003FA0EF2801843FA05F359410EE0A5F1D5
:1003400020050EF1200E012A03FA0EFC28BF4CF006
:10035000020C43FA05F3C01851EBE37101F00045BC
:1003600007D54FF0000EDCF1000C7EEB00006EEBC9
:100370000101B1F5801F1BD3B1F5001F0CD3490853
:100380005FEA30004FEA3C0C04F101044FEA4452AA
:1003900012F5800F80F09A80BCF1004F08BF5FEA31
:1003A000500C50F1000041EB045141EA050130BD11
:1003B0005FEA4C0C404141EB0101013C28BFB1F523
:1003C000801FE9D291F0000F04BF01460020B1FA6E
:1003D00081F308BF2033A3F10B03B3F120020CDA41
:1003E0000C3208DD02F1140CC2F10C0201FA0CF01F
:1003F00021FA02F10CE002F11402D8BFC2F1200C84
:1004000001FA02F120FA0CFCDCBF41EA0C01904039
:10041000E41AA2BF01EB0451294330BD6FEA040482
:100420001F3C1CDA0C340EDC04F11404C4F120026D
:1004300020FA04F001FA02F340EA030021FA04F37F
:1004400045EA030130BDC4F10C04C4F1200220FAD6
:1004500002F001FA04F340EA0300294630BD21FA14
:1004600004F0294630BD94F0000F83F4801306BFDA
:1004700081F480110134013D4EE77FEA645C18BFCE
:100480007FEA655C29D094EA050F08BF90EA020F65
:1004900005D054EA000C04BF1946104630BD91EA5D
:1004A000030F1EBF0021002030BD5FEA545C05D160
:1004B0004000494128BF41F0004130BD14F580049F
:1004C0003CBF01F5801130BD01F0004545F0FE4113
:1004D00041F470014FF0000030BD7FEA645C1ABF48
:1004E000194610467FEA655C1CBF0B46024650EA7F
:1004F000013406BF52EA033591EA030F41F40021AB
:1005000030BD00BF90F0000F04BF0021704730B530
:100510004FF4806404F132044FF000054FF0000105
:1005200050E700BF90F0000F04BF0021704730B5C6
:100530004FF4806404F1320410F0004548BF40429B
:100540004FF000013EE700BF42004FEAE2014FEAF0
:1005500031014FEA02701FBF12F07F4393F07F4FCB
:1005600081F06051704732F07F4208BF704793F0CE
:100570007F4F04BF41F40021704730B54FF46074E1
:1005800001F0004521F000411CE700BF50EA0102E4
:1005900008BF704730B54FF000050AE050EA01028D
:1005A00008BF704730B511F0004502D5404261EBFD
:1005B00041014FF4806404F132045FEA915C3FF43E
:1005C000D8AE4FF003025FEADC0C18BF03325FEADB
:1005D000DC0C18BF033202EBDC02C2F1200300FA8C
:1005E00003FC20FA02F001FA03FE40EA0E0021FAB1
:1005F00002F11444BDE600BF70B54FF0FF0C4CF49F
:10060000E06C1CEA11541DBF1CEA135594EA0C0F50
:1006100095EA0C0F00F0DEF82C4481EA030621EA8B
:100620004C5123EA4C5350EA013518BF52EA0335C6
:1006300041F4801143F4801338D0A0FB02CE4FF078
:100640000005E1FB02E506F00042E0FB03E54FF0A8
:100650000006E1FB03569CF0000F18BF4EF0010EA0
:10066000A4F1FF04B6F5007F64F5407404D25FEA9C
:100670004E0E6D4146EB060642EAC62141EA55514F
:100680004FEAC52040EA5E504FEACE2EB4F1FD0C91
:1006900088BFBCF5E06F1ED8BEF1004F08BF5FEA0F
:1006A000500E50F1000041EB045170BD06F00046C1
:1006B00046EA010140EA020081EA0301B4EB5C046E
:1006C000C2BFD4EB0C0541EA045170BD41F4801166
:1006D0004FF0000E013C00F3AB8014F1360FDEBF8B
:1006E000002001F0004170BDC4F10004203C35DA67
:1006F0000C341BDC04F11404C4F1200500FA05F3EA
:1007000020FA04F001FA05F240EA020001F000428A
:1007100021F0004110EBD37021FA04F642EB060100
:100720005EEA430E08BF20EAD37070BDC4F10C042A
:10073000C4F1200500FA04F320FA05F001FA04F2EE
:1007400040EA020001F0004110EBD37041F10001DA
:100750005EEA430E08BF20EAD37070BDC4F12005E5
:1007600000FA05F24EEA020E20FA04F301FA05F24D
:1007700043EA020321FA04F001F0004121FA04F2F5
:1007800020EA020000EBD3705EEA430E08BF20EAC5
:10079000D37070BD94F0000F0FD101F000464000FF
:1007A00041EB010111F4801F08BF013CF7D041EA81
:1007B000060195F0000F18BF704703F00046520085
:1007C00043EB030313F4801F08BF013DF7D043EA56
:1007D0000603704794EA0C0F0CEA135518BF95EA0C
:1007E0000C0F0CD050EA410618BF52EA4306D1D193
:1007F00081EA030101F000414FF0000070BD50EAB2
:10080000410606BF1046194652EA430619D094EA3B
:100810000C0F02D150EA013613D195EA0C0F05D125
:1008200052EA03361CBF104619460AD181EA030179
:1008300001F0004141F0FE4141F470014FF0000031
:1008400070BD41F0FE4141F4780170BD70B54FF0CC
:10085000FF0C4CF4E06C1CEA11541DBF1CEA13554C
:1008600094EA0C0F95EA0C0F00F0A7F8A4EB05042E
:1008700081EA030E52EA03354FEA013100F0888025
:100880004FEA03334FF0805545EA131343EA1263EE
:100890004FEA022245EA111545EA10654FEA0026A3
:1008A0000EF000419D4208BF964244F1FD0404F55C
:1008B000407402D25B084FEA3202B61A65EB0305B8
:1008C0005B084FEA32024FF480104FF4002CB6EB75
:1008D000020E75EB030E22BFB61A754640EA0C00F5
:1008E0005B084FEA3202B6EB020E75EB030E22BF35
:1008F000B61A754640EA5C005B084FEA3202B6EB76
:10090000020E75EB030E22BFB61A754640EA9C0034
:100910005B084FEA3202B6EB020E75EB030E22BF04
:10092000B61A754640EADC0055EA060E18D04FEAC2
:10093000051545EA16754FEA06164FEAC30343EA62
:1009400052734FEAC2025FEA1C1CC0D111F4801F2F
:100950000BD141EA00014FF000004FF0004CB6E728
:1009600011F4801F04BF01430020B4F1FD0C88BFC7
:10097000BCF5E06F3FF6AFAEB5EB030C04BFB6EBD2
:10098000020C5FEA500C50F1000041EB045170BDC5
:100990000EF0004E4EEA113114EB5C04C2BFD4EBF2
:1009A0000C0541EA045170BD41F480114FF0000E76
:1009B000013C90E645EA060E8DE60CEA135594EAF2
:1009C0000C0F08BF95EA0C0F3FF43BAF94EA0C0FF5
:1009D0000AD150EA01347FF434AF95EA0C0F7FF46A
:1009E00025AF104619462CE795EA0C0F06D152EABE
:1009F00003353FF4FDAE1046194622E750EA4106A2
:100A000018BF52EA43067FF4C5AE50EA41047FF4B2
:100A10000DAF52EA43057FF4EBAE12E74FF0FF3C17
:100A200006E000BF4FF0010C02E000BF4FF0010CE8
:100A30004DF804CD4FEA410C7FEA6C5C4FEA430C61
:100A400018BF7FEA6C5C1BD001B050EA410C0CBFB0
:100A500052EA430C91EA030F02BF90EA020F002012
:100A6000704710F1000F91EA030F58BF994208BF79
:100A700090422CBFD8176FEAE37040F00100704736
:100A80004FEA410C7FEA6C5C02D150EA013C07D18D
:100A90004FEA430C7FEA6C5CD6D152EA033CD3D0D8
:100AA0005DF8040B704700BF8446104662468C46D2
:100AB0001946634600E000BF01B5FFF7B7FF002805
:100AC00048BF10F1000F01BD4DF808EDFFF7F4FF2E
:100AD0000CBF012000205DF808FB00BF4DF808EDB9
:100AE000FFF7EAFF34BF012000205DF808FB00BFDC
:100AF0004DF808EDFFF7E0FF94BF012000205DF8FE
:100B000008FB00BF4DF808EDFFF7CEFF94BF0120B2
:100B100000205DF808FB00BF4DF808EDFFF7C4FFAB
:100B200034BF012000205DF808FB00BF4FEA410CF4
:100B30007FEA6C5C02D150EA013C0AD14FEA430CD7
:100B40007FEA6C5C02D152EA033C02D14FF0000014
:100B500070474FF0010070474FEA410212F5001252
:100B600015D211D56FF47873B3EB625212D94FEAF4
:100B7000C12343F0004343EA505311F0004F23FADE
:100B800002F018BF404270474FF00000704750EA33
:100B9000013005D111F0004008BF6FF000407047F0
:100BA0004FF00000704700BF4A0011D212F500124A
:100BB00011D20DD56FF47873B3EB62520ED44FEAB5
:100BC000C12343F0004343EA505323FA02F0704735
:100BD0004FF00000704750EA013002D14FF0FF3073
:100BE00070474FF0000070474FEA4102B2F1E04316
:100BF00024BFB3F5001CDCF1FE5C0DD901F0004C04
:100C00004FEAC0024CEA5070B2F1004F40EB830053
:100C100008BF20F00100704711F0804F21D113F17F
:100C20003872BCBF01F00040704741F480114FEAB8
:100C30005252C2F11802C2F1200C10FA0CF320FA41
:100C400002F018BF40F001004FEAC1234FEAD3235E
:100C500003FA0CFC40EA0C0023FA02F34FEA4303C8
:100C6000CCE77FEA625307D150EA01331EBF4FF051
:100C7000FE4040F44000704701F0004040F0FE406C
:100C800040F40000704700BF53B94AB9002908BFBB
:100C900000281CBF4FF0FF314FF0FF3000F0E2B8EA
:100CA000ADF1080C6DE904CE0CF0E8FCDDF804E0D1
:100CB000DDE9022304B0704700F1340191E8380007
:100CC0009C46A6464CF8045D90E8FF0FE54600BD43
:100CD00090EC210B704700BF80EC210B704700BFE8
:100CE00090EC200B704700BF80EC200B704700BFDA
:100CF000D0EC200B704700BFC0EC200B704700BF4A
:100D0000F0EC0201F0EC0211F0EC0221F0EC023107
:100D1000F0EC0241F0EC0251F0EC0261F0EC0271F7
:100D2000F0EC0281F0EC0291F0EC02A1F0EC02B1E7
:100D3000F0EC02C1F0EC02D1F0EC02E1F0EC02F1D7
:100D4000704700BFE0EC0201E0EC0211E0EC022190
:100D5000E0EC0231E0EC0241E0EC0251E0EC026137
:100D6000E0EC0271E0EC0281E0EC0291E0EC02A127
:100D7000E0EC02B1E0EC02C1E0EC02D1E0EC02E117
:100D8000E0EC02F1704700BFB0FC0181B0FC0191C2
:100D9000B0FC01A1B0FC01B1704700BFA0FC018113
:100DA000A0FC0191A0FC01A1A0FC01B1704700BF13
:100DB000EC4600B52DE900502DE9FF1F4FF0000370
:100DC0002DE90C0001A90CF013FFDDF840E012B092
:100DD000704700BFEC4600B52DE900502DE9FF1F1C
:100DE0004FF000032DE90C0001A90CF03DFFDDF8E8
:100DF00040E012B0704700BFEC4600B52DE900504E
:100E00002DE9FF1F4FF000032DE90C0001A90CF0A4
:100E10004DFFDDF840E012B0704700BFEC4600B572
:100E20002DE900502DE9FF1F4FF000032DE90C00C4
:100E300001AB0CF011FFDDF840E012B0704700BFCD
:100E4000EC4600B52DE900502DE9FF1F4FF00003DF
:100E50002DE90C0001AA0CF07DFFDDF840E012B096
:100E6000704700BF704700BF10B5054C237833B9F9
:100E7000044B13B10448AFF300800123237010BD6D
:100E8000240200200000000008E6000808B5034B1B
:100E90001BB103490348AFF3008008BD0000000008
:100EA0002802002008E600082DE9F84F664B674D40
:100EB0001C68674E2868674FDFF8ACB12DED068BD4
:100EC00006EB8406F0EE418AF0EE409AB0EE60AA9E
:100ED000FFF73AFBD6ED007A77EEE87A804617EE18
:100EE000900A8946FFF730FB00224FF07F53FFF74F
:100EF00083FB02460B4640464946FFF7C5F9FFF71C
:100F000073FE2860544D4FEA840A554409EE100AD6
:100F10003868FFF719FBD5ED007A77EEE97A80465D
:100F200017EE900A8946FFF70FFB00224FF07F5320
:100F3000FFF762FB02460B4640464946FFF7A4F91D
:100F4000FFF752FE386008EE100ADBF80000FFF7EA
:100F5000FBFA424B9A44DAED007A77EECA7A804681
:100F600017EE900A8946FFF7EFFA00224FF07F5301
:100F7000FFF742FB02460B4640464946FFF784F91D
:100F8000FFF732FEC6ED008A79EE688AF0EE007A4D
:100F9000F0EEE88AF4EEE78AF1EE10FA07EE100AB6
:100FA000CBF80000C5ED009A8AED00AA06DC78EEC9
:100FB000696AF4EEE76AF1EE10FA41DD78EE287A1C
:100FC000274A284B77EEC96A77EE288AB2EE007A74
:100FD000F4EEC76AF1EE10FAC2ED008A79EE688A83
:100FE000C3ED007A48BF79EE077AB0EE007AF4EEEE
:100FF000C78A48BFC3ED007AF1EE10FA44BF39EE5C
:10100000479A82ED009A77EEE97AF5EEC07AF1EE32
:1010100010FA08D4B0EE000AF4EEC07AF1EE10FA3D
:1010200003DD79EE809AC3ED009ABDEC068B064A8B
:10103000072C04F1010308BF00231360BDE8F88FFB
:10104000084BD3ED007ADEE7400200204C0200207E
:10105000E82C002044020020C82C0020082D00208D
:101060005402002048020020500200202DE9F04FD9
:101070002DED048B384CADF60C5D03E00121C4204E
:1010800008F026FB01A9332000F0F2F903462146BF
:1010900001A8002BF2D101F001FD0028EED10421BE
:1010A0009FED2E8A2E4EDFF8D090DFF8D080DFF84B
:1010B000D0A0294CDFED2B8A332000F03BFA012130
:1010C000C42008F005FBB0EE489A06F1200B0BE0B7
:1010D000DAED007AA8EC019AE6EC017A5E4538EE8A
:1010E000278AE9EC017A20D01F4F02250DF2846196
:1010F000332000F0C5F921460DF2846000F07CFD3C
:1011000021460DF2846000F0D7FDF2EE000A70EE89
:10111000600A3A46B0EE680A21460DF2846000F09B
:1011200027FA012DD4D00125E0E7F4EE007A28EE6D
:10113000278A0E4A0E4B0F4C82ED008A0021C420F4
:1011400084ED008A83ED009A08F0C2FA0DF60C5D7A
:10115000BDEC048BBDE8F08F5802002000000000B9
:10116000C82C00203333733F283900205002002060
:101170004C02002044020020082D0020E82C002012
:101180002845002010B50121C42008F021FA0021D3
:10119000C42008F09DFA0021172008F019FA0B4826
:1011A0000B4C002102F01AF80A49084801F002FF2E
:1011B00007484FF4612108F0CDFD204608F0CCFD32
:1011C0000028FAD0BDE81040FFF750BF28450020A6
:1011D000D84B0020801A060070B52DED028B134C01
:1011E000134E9FED148AADF5D16D022501A9332070
:1011F00000F046F9214601A800F0FEFC214601A8B6
:1012000000F05AFDF2EE000A70EE600A3246B0EECF
:10121000480A214601A800F0ABF9012D04D10DF5D3
:10122000D16DBDEC028B70BD0125DFE758020020B7
:10123000283900203333733F2DE9F04F2DED068B15
:10124000012197B0C42008F043FAFFF7C5FF002141
:10125000C42008F03DFA7B49DFED7B9A9FED7B8A45
:10126000DFED7B8ADFF8FC919FED7A9A7A4F7B4E17
:1012700001A808F089FDB0EE69AA4FF00008784A8D
:10128000C8EB887302EB830A19EE103AC3EB43658F
:1012900002EBC515CB460024FBEC017AF4EEE87AAC
:1012A000F1EE10FA4FF0020110A8EAEC017AF4EE28
:1012B000487A07DD07EE104AB8EEC9AAF8EEC79AD9
:1012C000F0EE678AF1EE10FAB5EC010A48BFB0EE15
:1012D000678A08F08DFD10A913A808F06FFD394644
:1012E00013A808F0F7FD0146304608F0A5FB13A847
:1012F00008F0BCFD013410A808F0B8FD202CCBD1BB
:1013000019EE103A08F12008013BB8F5407F09EECC
:10131000103A09F18009B2D1524A92EDAD7AD2ED7C
:10132000A77AD2EDB36A77EE877A92EDB97A77EE43
:10133000A67A02F21C53D3ED006A77EE877A93ED1A
:10134000127A77EEA67AD3EDA06A77EE877A93EDDC
:10135000A67A77EEA67AD3EDAC6A77EE877A93ED2C
:10136000B27A77EEA67AB4EE001A77EE877AF0EECC
:10137000480A27EE811AB0EE680AFFF795FD3A4B4E
:10138000022193ED000A04A808F032FD04A907A881
:1013900008F014FD304907A808F09CFD334B0446C3
:1013A00093ED000A02210AA808F022FD0AA92046AE
:1013B00008F064FD284908F08DFDB0EE680A044687
:1013C00002210DA808F014FD0DA9204608F056FDD5
:1013D000214908F07FFDB0EE4A0A0446022110A818
:1013E00008F006FD10A9204608F048FD1A4908F04B
:1013F00071FDB0EE690A0446022113A808F0F8FC5A
:1014000013A9204608F03AFD0146144808F038FBBD
:1014100013A808F02BFD10A808F028FD0DA808F06F
:1014200025FD0AA808F022FD07A808F01FFD04A862
:1014300008F01CFD01A808F019FD17B0BDEC068BE3
:10144000BDE8F08F3CED0008000000000000FA430A
:10145000000020C21700000020E60008D84B002042
:10146000A83800202839002048020020540200201B
:101470000B464FF450724FF4105101F02FBC00BFD7
:1014800070B5054682B00C460DF1060301224FF4FB
:101490000041284601F022FC844670BBBDF80630AE
:1014A0001A07F1D5064630224FF40041284601F0D4
:1014B00073FC8446BCF1FF3F23464FF450724FF457
:1014C0008061284619D001F009FC84460DF106031D
:1014D00001224FF400412846BCF1000F0DD101F06C
:1014E000FDFB0136F6B2844638B9BDF806301B075D
:1014F00006D5052ED7D16FF0070C604602B070BD3F
:10150000052EF8D001AB012248F20D01284601F06A
:10151000E5FBBDF806C0BDF80430A4F880360CF039
:10152000010CA4F882C6002818BF8446604602B0A9
:1015300070BD00BF30B583B00C460DF1060301222B
:1015400048F20D01054601F0C9FB08B103B030BDFA
:10155000BDF80620E10122F4607201F4607192B2DC
:101560000A43284648F20D0101F016FC03B030BDD5
:101570002DE9F04F03462DED108BB3F85436DFED17
:10158000EEBA87B007EE903A934601901A04B8EE8F
:10159000678A019B48BFDFEDE87AB0F882060290C7
:1015A00091F82400B3F880560C4648BF38EE678A9D
:1015B00010EE90AAB0EE40AAFEF7A4FF9FEDD80B64
:1015C00041EC110B0BF044F8C5F38125284657EC8C
:1015D000106BFEF7A7FF9FEDD20B41EC110B0BF048
:1015E00037F8304653EC102B3946FFF72FF9FFF749
:1015F000FBFAB4F9022007EE902A07EE100AB4F9BC
:101600000020F8EEE77AB3EE099AD7EE087A07EEF3
:10161000102AB8EEC77AB7EE00CAC7EE877AF0EEA6
:101620004CCA17EE900AFEF78FFFBFA3D3E9002341
:10163000FEF72CFEFFF7D8FA019BB3F8543607EEFD
:10164000903A1B04B8EE678A019B48BFDFEDBA7A77
:10165000B3F88066054694F8240048BF38EE678AE0
:10166000FEF750FF9FEDAE0B41EC110B0AF0F0FFBF
:10167000C6F38126304657EC106BFEF753FF9FED03
:10168000A80B41EC110B0AF0E3FF304653EC102B92
:101690003946FFF7DBF8FFF7A7FAB4F9022007EEA7
:1016A000902A07EE100AB4F90020F8EEE77AD7EE98
:1016B000087A07EE102AB8EEC77AC7EE877A17EED7
:1016C000900AFEF741FF98A3D3E90023FEF7DEFD61
:1016D000FFF78AFA019B94ED046AB3F8403607EEEF
:1016E000903A1F04019BB8EE677AB3F8003644BF06
:1016F000DFED917A37EE677A07EE903A1E0448BF25
:10170000DFED8D6AF8EE677A814648BF77EEE67ABC
:10171000DFED8A6AE6EE077A87EE276A66EE267ABA
:1017200017EE900AFEF710FF064660680F46FEF7B8
:101730000BFF0246484690468946FEF705FF7AA30E
:10174000D3E90023FEF7A0FD02460B46404649467A
:10175000FEF752FF7A4B0022FEF798FD02460B4639
:1017600030463946FFF772F80646A0890F46FEF765
:10177000D9FE02460B4630463946FEF785FDFFF797
:1017800033FA94ED027A07EE900AC7EE877AD846CC
:1017900004F6444B77EE897A17EE900A37EEC99A31
:1017A000FEF7D2FE62A3D3E90023FEF76FFD0246E7
:1017B0000B46FEF721FFFFF717FA08EE100A504616
:1017C000FEF7C2FE5AA3D3E90023FEF75FFD0246EF
:1017D0000B46FEF711FFFFF707FA28EE488A07EEDF
:1017E000900AA7EEA78A284604F5925A0AF1040A3D
:1017F000C8EE0A8A04F14405D7EEA78AFEF7A4FED4
:1018000049A3D3E90023FEF73FFDFFF7EDF9B4F953
:101810004020D4ED0B5ADFED4B7AB4F94230D4EDD1
:101820000D6A94ED0E7A94ED075AB0EE4C6AA5EE6F
:10183000A76A9B1A07EE902AF8EEE77A8CEE06BAB2
:10184000019AB2F81016E6EEA7CA07EE903A019B8D
:1018500094ED086AB3F81436F8EEE77A09EE900AC8
:10186000A7EE27CA180407EE903AB4F91430B8EE80
:10187000677A44BFDFED307A37EE677A07EE903A49
:10188000F8EEE77AB2F88036B2F85026C7EE87AAAB
:101890005B0903F0800307EE901A090448BFDFEDEF
:1018A000266A94F82510F8EE677A07EE102A48BFEA
:1018B00077EEE67A120448BFDFED1F6AB8EE477A8A
:1018C00004F5005248BF37EE667AF7EE006AF0EE94
:1018D000665AE5EE296AB2F94C0AE6EE095A9942CF
:1018E000B2F94E3AB0EE666A06EE900AF8EEE66A93
:1018F0006AEEA77A65EEE66A18BF02F52562E6EEA3
:10190000867A18BFD2ED006ACDED047A07EE903AE0
:10191000F8EEE77A2AEE877A16E000BFAFF3008090
:1019200000000000000000406666666666660A40C9
:101930006666666666127140000080470000804857
:101940000000F03F0000204218BF77EEA67A04F5B1
:10195000925367EEA57A0233A6EE677A0393019B52
:101960002CEE8CCA8DED057A9946019BB3F8823630
:1019700023B107B0BDEC108BBDE8F08FB9F8003093
:101980009AED007A029AD4ED066A95ED008A07EE88
:10199000903AB8EE676AF7EE007AB0EE675AA7EEB3
:1019A000095A1B0405F5F05394ED0A7AF0EE675AD4
:1019B000E7EE095A93ED007ABBF90030E7EE297A99
:1019C00007EE103AB8EEC77A48BF36EE6B6A27EEDC
:1019D000057A02F5296367EEC77A04EB8303E6EE26
:1019E0002A7A87EE8ADAD3ED017A06AB03EB82031B
:1019F00013ED027AA6EEE78AA6EEC7DA28EE258A6C
:101A0000B0EE4D0AA8EE880A68EE087A67EE887A8A
:101A100067EE807AF5EE407AF1EE10FA00F1CD80B3
:101A2000B1EEE70AB5EE400AF1EE10FA00F1D4800B
:101A3000B1EEC0EA1DEE100AFEF786FDD4ED0CDA19
:101A400041EC1F0B1DEE900AFEF77EFD66A3D3E965
:101A50000023FEF7D1FD02460B4600206449FEF745
:101A600013FC064618EE100A0F46FEF76DFD0246FF
:101A70000B4630463946FEF7BFFD6EEE2D7A064620
:101A800017EE900A0F46FEF75FFD02460B46304602
:101A90003946FEF7FBFB02460B4651EC1F0BFEF7E7
:101AA000D5FE064618EE900A0F46FEF74DFD02469B
:101AB0000B4630463946FEF7E9FB41EC100B0AF0C5
:101AC0003FFE0AF03DFE48A3D3E9002351EC100B82
:101AD000FEF7DAFBFFF788F8B4F93E3007EE103A6C
:101AE00007EE900AB8EEC77AB4EEE77AF1EE10FA94
:101AF00041DDB4F93C3007EE103A28EE0B8AB8EE1F
:101B0000C77A002304EB830377EEC77AD3ED0B6A21
:101B1000B7EE007AA6EEA77A27EE088ACDEE087A0D
:101B200077EEA87AF5EE407AF1EE10FA4FD4B1EEE6
:101B3000E70AB5EE400AF1EE10FA43D4F1EEC07AAE
:101B400017EE900AFEF700FD27A3D3E90023FEF766
:101B50009BFBFFF749F8039BC8F800009B453FF447
:101B600008AF08F104080BF1020B043509F1020972
:101B70000AF1040AF9E6B4F9403006EE903AF8EEBC
:101B8000E66AF4EEE76AF1EE10FA10DCB4F94230DE
:101B900007EE103AB8EEC77AB4EEE77AF1EE10FA33
:101BA00007DD28EE2C8AB0EE667A0223AAE701232D
:101BB000A8E728EE0C8A0323A4E7B0EE670A0AF030
:101BC00025FD2FE70AF022FD10EE100ABAE7B0EE6D
:101BD000670A0AF01BFDACE70AF018FDB0EE40EA18
:101BE00028E700BFAFF30080666666666612714044
:101BF0000000F03F00000000D0B5B0F85436B0F857
:101C000080662DED028B07EE903A1B04B8EE678AD2
:101C100048BFDFED277A91F8240048BF38EE678A85
:101C20000C46FEF76FFC9FED1E0B41EC110B0AF00A
:101C30000FFDC6F38126304657EC106BFEF772FCA1
:101C40009FED170B41EC110B0AF002FD304653ECEF
:101C5000102B3946FEF7FAFDFEF7C6FFB4F9023045
:101C600007EE903A06EE900AB4F90030F8EEE77A03
:101C700007EE103AD8EE267AB8EEC77AC7EE877A22
:101C800017EE900AFEF760FC07A3D3E90023FEF7E6
:101C9000FDFAFEF7A9FFBDEC028B00EE100AD0BDE5
:101CA00000000000000000406666666666660A4046
:101CB00000008047000000002DE9F843B0F85436DA
:101CC000B0F880662DED028B07EE903A0C461904B1
:101CD000B8EE678A48BFDFED567A054694F82400CF
:101CE00048BF38EE678AFEF70DFC9FED4D0B41ECC7
:101CF000110B0AF0ADFCC6F38126304657EC106B91
:101D0000FEF710FC9FED460B41EC110B0AF0A0FC16
:101D1000304653EC102B3946FEF798FDFEF764FF72
:101D2000B4F9023007EE903A06EE900AB4F90030AA
:101D3000F8EEE77A07EE103AD6EE887AB8EEC77A70
:101D4000C7EE877A17EE900AFEF7FEFB36A3D3E9BB
:101D50000023FEF79BFAFEF747FFB5F8403694EDF7
:101D6000046A07EE903A1A04B8EE677AB5F80036BE
:101D700044BFDFED2F7A37EE677A07EE903A1B0407
:101D800048BFDFED2B6AF8EE677A814648BF77EEF1
:101D9000E67ADFED286AE6EE077A87EE276A66EED6
:101DA000267A17EE900AFEF7CFFB064660680F46CC
:101DB000FEF7CAFB0246484690468946FEF7C4FB3A
:101DC00019A3D3E90023FEF75FFA02460B4640460B
:101DD0004946FEF711FC184B0022FEF757FA02465F
:101DE0000B4630463946FEF731FD0646A0890F46C0
:101DF000FEF798FB02460B4630463946FEF744FA9A
:101E0000FEF7F2FE94ED027A06EE900A86EE870A5D
:101E1000BDEC028BF3EE097A30EE270ABDE8F883B9
:101E200000000000000000406666666666660A40C4
:101E300000008047000080480000F03F4FF6D87255
:101E4000B0F87E30CA63B0F87E209FED415AC2F3ED
:101E50000312C3F30133A1F8402003EB8303B0F86E
:101E60007EC05B0012FB03F292B2CCF3032C0CFB9E
:101E70000323A1F84020A1F84230B0F87A20B0F84E
:101E80007EC0B0F87C300CF00F005FFA82FC05EEEB
:101E900090CA120AF8EEE55A07EE902ADAB21B0A47
:101EA000B8EEE77AF4EEC55A06EE102A07EE903A3D
:101EB00000F108020123F1EE10FA03FA02F3C8BFA1
:101EC0009FED245A81ED0C7A06EE903AC8BF75EE6C
:101ED000C55AF8EEE66AB8EEC66A85EEA65ADFED98
:101EE0001C5A81ED0D6AB4EEE57AF1EE10FAC8BF26
:101EF000DFED185A81ED0B5AC8BF37EE657AF8EE60
:101F0000E77AC7EE265A9FED127AC1ED0E7AB4EE4B
:101F1000C76AF1EE10FAC8BF9FED0E7AC1ED0C5AF8
:101F2000C8BF36EE476A9FED0A7AF4EEC77AF1EE43
:101F300010FAC4BF9FED077A77EEC77AC6EE265A2D
:101F400087EEA67AC1ED0D5A81ED0E7A704700BF7B
:101F50000000FE42000080432DE9F04F2DED088B7C
:101F6000B0F84070B0F84460B0F84650B0F848405F
:101F7000B0F84C20B0F84E30BFB082468B4607F028
:101F80000F0EB0F84A10C7F30319380BC7F3032735
:101F9000049706F00F070697C6F303170797C6F3D3
:101FA0000327360B099605F00F060A96C5F30316AC
:101FB0000B96C5F303262D0B0D9504F00F050E951A
:101FC000C4F303150F95C4F30325240B119401F0FA
:101FD0000F041294C1F303141394C1F30324090BE7
:101FE000159102F00F011691C2F303111791C2F37C
:101FF0000321120B199203F00F021A92C3F303127A
:102000001B92C3F303221B0B08970C961095149494
:1020100018911C92BAF842201D9305AB1E30039311
:10202000059253F8042F072AC4BF103A1A601DAA5C
:102030009342F6D1BAF85060BAF85250BAF8544008
:10204000BAF85610BAF85820BAF85A30BAF85CC044
:1020500006F00F071E97C6F303171F97C6F3032753
:10206000360B219605F00F062296C5F3031623962C
:10207000C5F303262D0B259504F00F052695C4F313
:1020800003152795C4F30325240B299401F00F04AD
:102090002A94C1F303142B94C1F30324090B2D914B
:1020A00002F00F012E91C2F303112F91C2F303210D
:1020B000120B319203F00F023292C3F303123392E8
:1020C000C3F303221B0B35930CF00F033693CCF3B1
:1020D0000313309134922097CCF303222496289551
:1020E0002C943793BAF85E3038924FEA1C3239920A
:1020F00003F00F023A92C3F303123B92C3F303229D
:102100001B0B3D933C921DAB3DA953F8042F072AAE
:10211000C4BF103A1A609942F7D10AF17E030293C4
:102120000BF144030193012303FA0EF307EE903AF7
:10213000B8EEE7BAFEF7E6F99FED2DABDFED2EBA6C
:1021400041EC190B0DF1F808039B019C53F8047F37
:102150000393049B029E9F40059BF3EE0F8A1F444E
:102160001EAD36F8023FB0EE491AF0EE691AC3F31D
:10217000051307EE903AB0EE4A0AF0EE6A0A55F8F7
:10218000043BF8EEE77A03FA09F33B44F4EEE87A0D
:1021900008EE103AF1EE10FAC8BF77EEEB7AB8EE1F
:1021A000C88AC4ED007AABEE278A84ED008A0AF073
:1021B0004FFA5BEC10AB18EE100AFEF7C5F9524669
:1021C0005B46FEF743FBFEF70FFDA84544F8040B02
:1021D000C7D1029B40330293019B80330193039B41
:1021E0001DAA9A42B0D13FB0BDEC088BBDE8F08F7C
:1021F0000000000000000040000080422DE9F04F88
:10220000B0F824C0C78C048D828DC38DB0F820B087
:10221000BBB00CF00F0ECDF808E0CCF3031ECDF8E8
:102220000CE0CCF3032E4FEA1C3CCDF814C007F0B1
:102230000F0CCDF818C0C7F3031CCDF81CC0C7F3B2
:10224000032C3F0B099704F00F0701910A97418D6A
:10225000CDF810E0C4F303170B97C4F30327240B46
:102260000D9401F00F040E94C1F303140F94C1F305
:102270000324090B119102F00F011291C2F3031113
:102280001391C2F30321120B159203F00F02169261
:10229000C3F303121792C3F303221B0BCDF820C024
:1022A0000C971094149118920DF104081993438C13
:1022B00000930BF00F05CBF303160DF1640ACBF37B
:1022C000032B434653F8042F072AC4BF103A1A6061
:1022D0005345F7D1B0F830C0478E848EC18E028F3F
:1022E000438FB0F83C900CF00F0ECDF868E0CCF3C3
:1022F000031ECDF86CE0CCF3032E4FEA1C3CCDF866
:1023000074C007F00F0CCDF878C0C7F3031CCDF8EC
:102310007CC0C7F3032C3F0B219704F00F072297D3
:10232000C4F303172397C4F30327240B259401F068
:102330000F042694C1F303142794C1F30324090B5B
:10234000299102F00F012A91C2F303112B91C2F3DC
:102350000321120B2D9203F00F022E92C3F30312EE
:102360002F92C3F303221B0B319309F00F03329317
:10237000C9F303132C913092CDF870E0C9F3032216
:10238000CDF880C0249728943393C38F34924FEABA
:102390001932359203F00F023692C3F303123792CB
:1023A000C3F303221B0B39933892534639A953F8D0
:1023B000042F072AC4BF103A1A609942F7D1019B33
:1023C00000F17E0703F642493AAC58F8043F03FA9D
:1023D0000BFE009B9E4448461FFA8EFE1AA9BC467F
:1023E0003CF8022FB2F5004F4FEA92231AB228BFF1
:1023F000A3F1400251F8043B28BF12B2B34042801F
:102400007344AA4013448C4220F8023FE8D1C245ED
:1024100007F1400709F14009D7D13BB0BDE8F08F83
:102420002DE9F04F2DED088B034683B0B0F87020F6
:10243000B0F86E40B3F86C508DF80650200A02F0E8
:102440000F05C2F303128DF8050002F10800012206
:10245000AA4007EE902A93F96DA08DF8074001F588
:102460009259B8EEE7BA03F1BE078DF804A0FEF763
:1024700049F89FED37AB41EC190B09F10409F2EE75
:1024800000BA4FF00008A7F1400508F101044E46DC
:10249000F0EE088A24E007EE10AAB8EEC78AA7EE8D
:1024A0008B8A86ED008A0AF0D3F85BEC10AB18EE4D
:1024B000100AFEF749F852465B46FEF7C7F9FEF7E9
:1024C00093FBAF4246F8040B28D0C4F3401204F04B
:1024D000010303EB420308336B44013413F904ACEA
:1024E00035F8023FB0EE491AF0EE691AC3F3420321
:1024F00007EE903AB0EE4A0AF0EE6A0AF8EEE77A92
:10250000F4EEE87AF1EE10FAC5DD07EE10AA77EEE8
:10251000EB7AB8EEC78AA7EE8B8AC2E708F12008EB
:10252000B8F5407F07F1400709F180090AD0C8F3E8
:10253000401308F0010202EB430308336B4413F924
:1025400004ACA0E703B0BDEC088BBDE8F08F00BF82
:1025500000000000000000402DE9F043B0F86830B2
:10256000B0F870002DED068B4FEA1338B3F5004F2D
:1025700083B0C3F3032228BFA8F110081C0548BF8D
:10258000103A0F468DF806201906C3F3031248BF10
:10259000103A8DF8052003F00F021B0748BF103AD0
:1025A0004FFA88F8C0F303208DF804808DF80720D7
:1025B000FDF7A8FF9FED26AB07F5F25741EC190B8D
:1025C00004372026A6F11F043D4602E013F9048CCF
:1025D000013407EE908AB0EE491AF0EE691AB8EEAF
:1025E000E78AB0EE4A0AF0EE6A0A85ED008A0AF040
:1025F0002FF859EC108B18EE100AFDF7A5FF424694
:102600004B46FEF723F9FEF7EFFAC4F3401304F04C
:10261000010202EB43030833A64245F8040B6B4466
:10262000D4D1B6F5407F07F180070BD0C6F3401236
:1026300006F0010303EB420308336B44203613F921
:10264000048CBFE703B0BDEC068BBDE8F08300BF90
:1026500000000000000000402DE9F84304462DED85
:10266000048BB4F97430B4F87420DFED677AB0F8F5
:102670004000C3F309079B0548BFA7F580674FEAF1
:1026800092234ABFBDB2BDB23FB2B2F5004F24BFE4
:10269000403B9BB21D44B4F87230C3F3090307EE0C
:1026A000103AB8EEC78A000BB4EEE78AF1EE10FAE2
:1026B000C8BFDFED567A00F11B00C8BF38EE678A4D
:1026C0000E46FDF71FFF9FED4E0B41EC110B09F07D
:1026D000BFFF59EC108B18EE100AFDF735FF42468C
:1026E0004B46FEF7B3F8FEF77FFAB4F872309B0A58
:1026F00007EE903AF8EEE77AB3EE0F7AF4EEC77A87
:10270000F1EE10FA94F87630C8BF9FED417A08EEEA
:10271000103AC8BF77EEC77A9FED3E7AF7EE008A8F
:10272000E7EE878A2DB2DFED3C7AB8EEC88A09EE73
:10273000100AB4EEE78AB4F87000F1EE10FAC8BFE0
:10274000DFED367AC0F3031000F10800C8BF38EEA1
:10275000678AFDF7D7FE9FED2A0B41EC110B09F0BC
:1027600077FF59EC108B18EE100AFDF7EDFE42468C
:102770004B46FEF76BF8FEF737FAB4F87630DFED2C
:10278000267A30621B0A07EE103AB8EEC78AB4F810
:102790007000B4EEE78AF1EE10FAC8BFDFED1F7AE1
:1027A000C0F30320C8BF38EE678AFDF7ABFE9FED8C
:1027B000140B41EC110B09F04BFF59EC108B18EE88
:1027C000100AFDF7C1FE42464B46FEF73FF8FEF702
:1027D0000BFA69EE288A06F5005303F6442103F646
:1027E0004822F06181ED009AC2ED008ABDEC048BB5
:1027F000A3F84C7AA3F84E5ABDE8F883AFF30080F3
:1028000000000000000000400080FF430000804402
:10281000000080420000003C0000FE4200008043B7
:1028200042F65C222DE9F0418E184FF0FF334FF055
:10283000000C8B5000F17E0E7360B360F360336167
:102840006446634641F2305841F22C570DE09380C4
:10285000ACB201339BB2B3F5407F1FD0052C00F022
:102860000781BCF1050F00F007813EF8020FE21965
:1028700001EB4202651C0028E9D010F0010F0CEBBF
:102880000802E6D001EB42020CF10100D3800133D3
:102890009BB2B3F5407F1FFA80FCDFD1052C00F01E
:1028A000E780BCF1050F00F0E78004EB0C03042B7C
:1028B00000F3F080002C00F0E780271D3046BFB207
:1028C0000425EB1E9C4239DD038842889A1A02F1E6
:1028D000210EBEF1020F40F2D38002F1010EBEF1D3
:1028E000020F40F2CD801F3A022A40F2C980AA1E90
:1028F000944223DD82889A1A02F1210EBEF1020F62
:1029000040F2BE8002F1010EBEF1020F40F2B8802B
:102910001F3A022A40F2B4806A1E94420EDDC28839
:102920009B1A03F12102022A40F2AA805A1C022AB1
:1029300040F2A6801F3B022B40F2A2800135BD422F
:1029400000F10200BDD1BCF1000F43D001F52950C8
:102950000CF104072630BFB20425EB1E9C4532DD86
:10296000038842889A1A02F1210EBEF1020F40F24A
:10297000878002F1010EBEF1020F40F281801F3A02
:10298000022A7DD9AA1E94451DDD82889A1A02F179
:10299000210EBEF1020F73D902F1010EBEF1020F3A
:1029A0006ED91F3A022A6BD96A1E94450BDDC28884
:1029B0009B1A03F12102022A62D95A1C022A5FD90A
:1029C0001F3B022B5CD90135AF4200F10200C4D19C
:1029D000002C5DD001F52953601E80B21E3303EB3D
:1029E000400001F50051BCF1000F3DD03388B1F833
:1029F000662A9A1A02F12104022C41D9541C022C95
:102A00003ED91F3A022A3BD9BCF1010F2CD0B1F8B4
:102A1000682A9A1A02F12104022C31D9541C022C82
:102A20002ED91F3A022A2BD9BCF1020F1CD0B1F8C3
:102A30006A2A9A1A02F12104022C21D9541C022C70
:102A40001ED91F3A022A1BD9BCF1030F0CD0B1F8D2
:102A50006C2A9B1A03F12102022A11D95A1C022A5C
:102A60000ED91F3B022B0BD902368642BBD10FE099
:102A70006FF00200BDE8F0816FF00300BDE8F08167
:102A80006FF00500BDE8F081BCF1000F7FF45EAF90
:102A90000020EFE76FF00400ECE700BF38B5838A51
:102AA0005B0600F104810D46B0F86610B0F966309F
:102AB0009FED806ADFED806A0A0AB1F5004F28BFFA
:102AC000A2F5807263F0FF0328BF92B25B01A3F509
:102AD000005352012A806B80B0F864309A0A07EEE6
:102AE000102AB8EEC77AF3EE0F7AB4EEE77AF1EE79
:102AF00010FAC8BFDFED717A028CC3F30903C8BFB7
:102B000037EE677A07EE903AB0F86230AB81F8EEB4
:102B1000E77AB0F86030AB82F4EEC67AB0F878307D
:102B2000F1EE10FA67EE266A4FEA9232C8BF9FEDC7
:102B3000647AC5ED016A06EE102ADAB2C8BF77EEF4
:102B4000C77A07EE102AF4EE005A67EEA57AB8EEBF
:102B5000C77ADFED5C5AC5ED027AB4EEE57AF1EEA4
:102B600010FAC8BFDFED587ADFED566AB0F8702072
:102B7000C8BF37EE677ADFED557A1B0A27EE277A52
:102B800007EE903AF8EEE77A85ED067AF4EEE67A0B
:102B9000F1EE10FAC8BF9FED4C7AB8EEC66AC8BF16
:102BA00077EEC77A9FED4A7AB2EE005A67EE877ADF
:102BB00036EE056AC2F30133044685F8243085ED0C
:102BC000046AC5ED0A7A2946FFF738F92046FFF76F
:102BD000C3F929462046FFF711FB29462046FFF797
:102BE0001FFC29462046FFF7B7FC29462046FFF781
:102BF00033FDB4F86A30DFED376AA18A03F03F0293
:102C000007EE902AF8EEE77AB3EE0F7AF4EEC77A81
:102C1000F1EE10FAC8BF9FED297AC3F38412C8BF42
:102C200077EEC77A07EE102AB8EEC77AB2EE0E6AD0
:102C3000B4EEC67AF1EE10FA67EEA66AC8BFDFED11
:102C4000267A4FEAD323C8BF37EE677A07EE903A69
:102C5000F8EEE77AB2EE0E6AF4EEC67AF1EE10FA0A
:102C6000C4BF9FED1D6A77EEC67A6FEA1111F6EECA
:102C7000005AB4EE006A05F5005301F0800127EE1A
:102C8000257A67EE867A85F8251003F5256003F628
:102C9000542203F65823C0ED006A294682ED007ADB
:102CA0002046C3ED007ABDE83840FFF7B9BD6FF0AC
:102CB000060038BD0080FF430000803900008042DC
:102CC000000080440000FE42000080430000003D00
:102CD000000000390000803D000000422DE9F04F67
:102CE000520097B283B0002F4FD02A4C82468846BC
:102CF0001D464FF0000B06E073080193BF1BBFB2E7
:102D00009844002F41D05146204600F0A5F9C8F361
:102D10000721204600F0B2F85FFA88F1204600F063
:102D2000ADF80021204600F09FF970BB202F3E46F1
:102D300028BF202632465146204600F057F920464B
:102D400000F060F80028D7D073080193D6D003EBC9
:102D50000B091FFA89F9204600F058F8000225F8FF
:102D60001B00204600F052F835F81B100BF1010251
:102D7000084325F81B001FFA82FBCB45EBD1019BD2
:102D8000BF1BBFB29844002FBDD1002003B0BDE8E7
:102D9000F08F00BF2845002070B5064682B00D4672
:102DA00016483146144600F057F9C5F30721134879
:102DB00000F064F8E9B2114800F060F8210A0F4809
:102DC00000F05CF80D48E1B200F058F80B4800F054
:102DD00077F978B90DF10603012229463046FFF74D
:102DE0007DFFBDF80630A3420CBF00206FF001004C
:102DF00002B070BD4FF0FF30FAE700BF2845002059
:102E000000207047028BC08A101A7047C28A018B5B
:102E10009142034604D90069511C805CD9827047F5
:102E20004FF0FF30704700BF028BC38A9A4286BFC3
:102E30000269D05C4FF0FF30704700BF806DD0F862
:102E4000DC302BB10022D0F8E0304284D430184777
:102E5000704700BF10B5044600690021C4F8161081
:102E600010B1A28A08F01AFFE0690021618420B144
:102E7000228CBDE8104008F011BF10BD30B583B002
:102E800090F824308DF807100446A3B1438C591CE8
:102E9000B1F5806F0CDC028C914217D8C0699DF8A7
:102EA0000720C254638C01200344638403B030BD07
:102EB000002003B030BD01220DF10701283000F0E1
:102EC00089FBB0FA80F0400903B030BD202938BF3B
:102ED0002021C0690D4608F0C9FF18B1638CE0617C
:102EE0002584DCE7FEE700BFF8B590F824300446FF
:102EF00015465BB1428C5619B6F5806F04D80F4663
:102F0000018C8E420AD8FEB90020F8BD92B228305A
:102F100000F060FB0028F7D12846F8BD202E38BF0E
:102F20002026C069314608F0A1FF60B1628CE061E3
:102F30002684104439462A4608F088FE628C2846CA
:102F400015446584F8BDFEE7C069F2E7F0B5846D0D
:102F5000866ED4F8CC3083B0D3B1E28A238B9A4208
:102F600016D3A38A9E42054614D82069324605F13D
:102F7000740108F06BFED4F8CC3026830022E28284
:102F80000196A3B1D4F8D03001A904F1C400984748
:102F900003B0F0BD202E374638BF202720693946C0
:102FA00008F064FF10B12061A782DFE7FEE70BF0B5
:102FB00027FB00BF10B5044682B02830019000F016
:102FC0006FFA94F8BE3001980BB102B010BD0549FC
:102FD00000F07CFB0449019802B0BDE8104000F00D
:102FE0006DBB00BF3D2E00084D2F0008F8B590F8CE
:102FF000BE30012B02D000242046F8BD838AD4B213
:103000009C4205460E4618D802694FF02A437100CB
:10301000A6B2AB6501F0FE01334605F1280000F0D1
:10302000FBFA20B90023EB822E832046F8BD002650
:1030300000233446EB822E83F7E7202C274638BF47
:1030400020270069394608F011FF024610B12861B7
:10305000AF82DAE7FEE700BF01229140002380F84B
:10306000242081764384704738B5044649B94FF42B
:103070002A03836594F8BE30012B09D00425284625
:1030800038BD4FF02A43836594F8BE30012BF5D14B
:10309000638CE269A17E04F1280000F029FAE3695B
:1030A000042828BF0420054623B1228C002118469D
:1030B00008F0F4FD002384F824306384284638BDEA
:1030C00038B590F8BE304FF02A42012B826502D00D
:1030D0000425284638BD438CC269817E04462830C9
:1030E00000F006FAE369042828BF0420054623B14E
:1030F000228C0021184608F0D1FD002384F82430EA
:103100006384284638BD00BF2DE9F8430446D0F853
:10311000840006F043FA002106F05AFAD4F884300D
:1031200013F0800849D1C3F30312274D274E55F8F9
:10313000222003F00F03126956F8233093433AD04C
:10314000D4F8880006F02AFA012106F041FA204B53
:10315000204A1B68D4F88890A2FB033C4FEA9C4CA1
:103160000CEB8C0C19F0800F1B4AC9F3031E4FEABD
:103170004C0C09F00F014FF0140721D156F8210033
:1031800055F82E800304C8F81830546853681B1B88
:103190009C45FBDCC8F81800546853681B1B9C4511
:1031A000FBDC013FEAD1484606F0F8F93946BDE8B4
:1031B000F84306F00DBABDE8F88300231B69FFDE73
:1031C000C8F81880FFDE00BF0C00002050E60008A1
:1031D0003400002083DE1B43001000E0D0F8DC3018
:1031E00070B50025C0E90455C0E9075504460E46F0
:1031F00005838576C0F8800033B100F1D401032245
:1032000008469847C4E937554FF40071012200235E
:10321000A18484F8BE20204684F8C03084F8BF60C2
:1032200004F12805FFF770FF94F8253009494FF4A1
:103230008042284600F04EF894F8BE3003B170BDCD
:103240002846054900F042FA28460449BDE8704086
:1032500000F034BAA08601003D2E00084D2F000872
:103260000B490C4B0C4810B40C6EC3F88840496EE7
:10327000C3F8841000224FF47A71C3E901215DF88C
:10328000044B1860C3F8CC20C3F8DC20704700BFA3
:1032900028EC0008284500202CE6000810B50A4C50
:1032A0000A4AD4F8DC30226023B104F1D4010322AD
:1032B00008469847D4F8CC302BB10549BDE81040FA
:1032C00003220846184710BD284500202CE60008B8
:1032D000EC450020002800F090802DE9F0410446E4
:1032E00084B0C06D0D46654916461F4605F016FBB5
:1032F00063498046206E05F011FBB8F1000F79D0CC
:10330000002877D00146404605F038FB20600028B1
:1033100070D05C4B984204F1040800F091805A4B45
:10332000984270D0594B98421BD103F5EE330022DE
:1033300003921A6C42F400021A641A6C02F400023E
:103340000392039A1A6A42F400021A621A6A22F479
:1033500000021A624E4BC3F8088044F64813A4F8E2
:1033600064304749206E05F0C7FA4449E06D05F026
:10337000C3FA484B226862609D4240D9464B9D4249
:1033800003D9464B9D4288BF0023A3604FF480437E
:10339000E36094F8973094F964000025AB4294F808
:1033A000983084F841500CBF2A464022AB420CBFF3
:1033B0002B468023C4E9082302212A46C4E9047667
:1033C000C4E9065500F050FD94F9640000F08AFD50
:1033D00094F965002A46022100F046FD94F9650043
:1033E00000F080FD404600F06FFE38B90223A06671
:1033F00084F8953004B0BDE8F0817047FEE7A36023
:103400000023E360C5E703F5F033002202921A6C53
:1034100042F480021A641A6C02F480020292029A48
:103420001A6A42F480021A621A6A22F480021A624C
:10343000174BC3F8048042F22123A4F8643090E7CC
:1034400003F5F233002201921A6C42F400121A645E
:103450001A6C02F400120192019A1A6A42F40012E4
:103460001A621A6A22F400121A62094BC3F8008029
:1034700042F21F03A4F8643073E700BF08E70008B6
:10348000CCE600080054004000580040005C0040BA
:103490000C460020A0860100801A060040420F0062
:1034A000104B994210B5044618D90F4B994203D9D5
:1034B0000E4B994288BF002361684FF480400A6830
:1034C00022F001020A60C4E90230201D00F0FCFD78
:1034D0006268136843F00103136010BD4168002067
:1034E000EDE700BFA0860100801A060040420F00F1
:1034F0002DE9F04F984683B005460F46934600F0FD
:1035000089FCB8F1000F3ED0D5F830908246BFB2AA
:103510000435002643465A463946CDF800902846E1
:1035200000F0A0FF0228044622D0E0B900F072FCAF
:10353000074609E0632E39D800F06CFC06462846A1
:10354000F61B02F061F820B9284602F059F820284D
:10355000F0D1284602F058F8632E2AD8820628D4E3
:10356000430735D400B10424204603B0BDE8F08FF2
:1035700000F050FCA0EB0A06642ECBD906242046AE
:1035800003B0BDE8F08F642301223946281D00F006
:1035900063FE0228044616D003280FD00028E3D08B
:1035A00095F84130202BDED10224DDE7284602F0D9
:1035B0002BF80524204603B0BDE8F08F95F8413084
:1035C000202BF6D1F0E795F84130202BD6D1CBE770
:1035D0000324C9E7202A1DD810B5864692B1541E8F
:1035E00001F1FF3C11FA84F4C1F101019EF894004D
:1035F00001EB0C0303441CF8010F7344A44583F84A
:103600007400F3D19EF894301A44D2B28EF894200C
:10361000002010BD012070472DE9F04F83B0054612
:103620000F469346984600F0F5FBBFB2D5F83090B0
:1036300082460435002643465A463946CDF8009066
:10364000284600F089FF0228044622D0E0B900F0A5
:10365000E1FB074609E0632E26D800F0DBFB0646B7
:103660002846F61B01F0D0FF20B9284601F0C8FF1C
:103670002028F0D1284601F0C7FF632E17D8820614
:1036800015D4430718D400B10424204603B0BDE884
:10369000F08F00F0BFFBA0EB0A06642ECBD9062406
:1036A000204603B0BDE8F08F284601F0ADFF0524A9
:1036B000204603B0BDE8F08F0324E6E720B119B13E
:1036C000C166043001F06AB8704700BF20B119B17B
:1036D0000167043001F062B8704700BF70B590F820
:1036E0009130012B04460E46A0F1040512D0F6B924
:1036F000E36E84F891601BB184F890602846984787
:1037000094F8902004F1700120462023BDE8704019
:1037100000F0C0BF436E002BE9D0836E2846984767
:103720000222002384F891206366002EE0D000235B
:103730000122636684F89120616E74312944204629
:103740000423BDE8704000F0E7BF00BF10B590F85B
:103750009130012B044609D0022284F891200023E5
:1037600020466366BDE8104001F018B8436E002B98
:10377000F2D0836E04389847EEE700BF436E1F2BEC
:1037800002DC436E0133436690F89130012BDAB2CC
:1037900000D07047416E01440423703100F0BCBF7B
:1037A000002380F89030704790F8923003B1704752
:1037B00000F0F4BF014B186801F0A4B90C460020DA
:1037C000014B186801F054BE0C460020014B5868AC
:1037D00001F098B90C460020014B586801F048BE32
:1037E0000C460020014B986801F08CB90C46002073
:1037F000014B986801F03CBE0C46002010B40D4C03
:1038000022681318EFF308818B4209D80A490B4844
:10381000091A8B4204D2236010465DF8044B7047AE
:10382000074B5DF8044B0C221A604FF0FF32104634
:10383000704700BF000000200000022000040000CC
:1038400034540020FEE700BF024B16221A604FF0EE
:10385000FF30704734540020012070474D4A002348
:1038600091422DE9F041044683668367C0F88830B1
:10387000C0F89830C0F8A83050D0B1F1804F4CD08B
:10388000454B994255D10223444A914208BF062331
:1038900055D1434A914208BF0B2355D1414A21617A
:1038A00004F10C00002642F8230004F110080E2356
:1038B000C4E90C66C4E90E66C4E9106684F82C609D
:1038C000A66484F84C6084F84D60E460E665A36506
:1038D000404605F089F804F1600504F1B007AB68D3
:1038E000294623B1284603229847C5E902661035C8
:1038F000AF42F4D100234FF6FF718022C4E90033B8
:10390000C4E90631C4E90833A3606361A26240469A
:1039100003F0DCFB2046BDE8F0810123224A9142FE
:1039200008BF0523B0D1214A914208BF0A23B5D070
:10393000AFE703F58063994208BF032310D11C4A07
:10394000914208BF072304D11A4A914216D10C2391
:10395000A4E702F57052914208BF08239ED007E009
:1039600003F58063994218BF4FF6FF73D6D1042345
:10397000114A914208BF092390D0D4E702F5806232
:10398000914204D04FF6FF72934287D1FEE70D2398
:1039900084E700BF00000140000400400014004024
:1039A0000018004018460020001000400048014068
:1039B00000040140001C004000440140354A0369F6
:1039C000934270B5054639D0B3F1804F26D0A2F5A9
:1039D0007C42934234D102242F4A934208BF0624EA
:1039E00034D12E4A934208BF0B2434D105F1100084
:1039F00005F09CFA2A4A002342F8243005F15006CB
:103A000005F1A004EB60A368214620460322103C88
:103A100083B19847A642F6D1284670BD0124214AB9
:103A2000934208BF0524D7D11F4A934208BF0A24F6
:103A3000DCD0D6E7A642E6D1284670BD0024EEE7EA
:103A400002F58062934208BF032415D1174A9342BE
:103A500008BF072405D1164A934208BF0C24C5D0DD
:103A600005E002F57052934208BF08240CD1114AB8
:103A7000934208BF0D24B9E702F58062934218BF54
:103A80004FF6FF74CBD104240B4A934208BF09249C
:103A9000ACD0C9E70000014000140040001800400D
:103AA000184600200010004000480140000401407A
:103AB000001C00400020004000440140294B984277
:103AC00020D0B0F1804F10D0A3F57C4398421BD199
:103AD0000223254A904208BF06231BD1234A904265
:103AE00008BF0B231BD1184670470123204A904280
:103AF00008BF0523EDD11F4A904208BF0A23EDD12C
:103B0000184670470023F1E703F58063984208BF29
:103B1000032317D1184A904208BF072306D1174A3A
:103B2000904208BF0C2307D11846704702F5705227
:103B3000904208BF08230DD1114A904208BF0D23BF
:103B40001846704703F58063984218BF4FF6FF731D
:103B5000CCD104230B4A904208BF0923CBD118468D
:103B6000704700BF000001400014004000180040F2
:103B7000001000400048014000040140001C0040CB
:103B8000002000400044014050B1037F013B70B56C
:103B9000072B06D8DFE803F0181B051505050506F9
:103BA000FEE770BDA024042504F01CFF036818196B
:103BB0008268002AF5D003EB0513BDE87040DB6E88
:103BC000184790240325EFE770240125ECE78024B3
:103BD0000225E9E750B1037F013B70B5072B06D8FA
:103BE000DFE803F0181B051505050506FEE770BDA7
:103BF000A024042504F0F6FE036818198268002A40
:103C0000F5D003EB0513BDE87040DB6E1847902438
:103C10000325EFE770240125ECE780240225E9E77E
:103C200050B110B504F0DEFE0068836E2BB1C36E98
:103C3000BDE8104060301847FEE710BD10B5074CD6
:103C4000206810B1043003F0D3FA606A20B1BDE8F7
:103C50001040043003F0CCBA10BD00BF184600205D
:103C6000034B186810B1043003F0C2BA704700BFAC
:103C700018460020034B586810B1043003F0B8BA5E
:103C8000704700BF18460020034B986810B10430FD
:103C900003F0AEBA704700BF18460020034BD86847
:103CA00010B1043003F0A4BA704700BF18460020DA
:103CB000034B186910B1043003F09ABA704700BF83
:103CC00018460020034B586910B1043003F090BA35
:103CD000704700BF18460020034B986910B10430AC
:103CE00003F086BA704700BF1846002010B5074C95
:103CF000E06910B1043003F07BFA206B20B1BDE81D
:103D00001040043003F074BA10BD00BF1846002004
:103D1000034BD86910B1043003F06ABA704700BF92
:103D200018460020034B186A10B1043003F060BA43
:103D3000704700BF18460020034B986A10B104304A
:103D400003F056BA704700BF18460020034BD86AEC
:103D500010B1043003F04CBA704700BF1846002081
:103D6000034B586B10B1043003F042BA704700BFE8
:103D70001846002007F05ABF07F060BF704700BF29
:103D800038B50E4A0E4B12781B6805464FF47A7010
:103D9000B0FBF2F0B3FBF0F000F0C6F808B90F2D5D
:103DA00001D9012038BD0446024629464FF0FF30B4
:103DB00000F05AF8034B20461D6038BD0400002077
:103DC000340000200800002008B50B4B1A6842F4AC
:103DD00000721A601A6842F480621A601A6842F42B
:103DE00080721A60032000F02DF80020FFF7C8FF52
:103DF000FFF7C4FF002008BD003C0240034A044B0B
:103E000011681B780B441360704700BF50460020B8
:103E100004000020014B1868704700BF5046002086
:103E200038B50446FFF7F6FF631C054602D0044B85
:103E30001B781C44FFF7EEFF431BA342FAD338BDA7
:103E4000040000200749CA6803024FF6FF0003F48C
:103E5000E0630240134343F0BF6343F40033CB609D
:103E6000704700BF00ED00E01C4BDB68C3F302238A
:103E700000B5C3F1070EBEF1040F03F1040C28BF17
:103E80004FF0040EBCF1060F1BD9033B4FF0FF3C73
:103E90000CFA03FC22EA0C024FF0FF3C0CFA0EFC79
:103EA00021EA0C019940002841EA02010CDB00F1F3
:103EB0006040090100F56140C9B280F800135DF867
:103EC00004FB00221346E7E7054B00F00F00090151
:103ED0000344C9B219765DF804FB00BF00ED00E0B1
:103EE000FCEC00E0002808DB044A4109012300F053
:103EF0001F0003FA00F042F82100704700E100E0E3
:103F000000280DDB430907490122203300F01F0080
:103F100002FA00F041F82300BFF34F8FBFF36F8F19
:103F2000704700BF00E100E00138B0F1807F10D29F
:103F300010B44FF0E023084C58614FF0F00C84F8B7
:103F400023C00022072110469A615DF8044B1961D5
:103F500070470120704700BF00ED00E0002809DB3A
:103F60004309054900F01F000122603302FA00F006
:103F700041F82300704700BF00E100E0704700BF38
:103F800008B5FFF7FBFF08BD704700BF80B110B553
:103F90004379044603F0FF021BB101236371002043
:103FA00010BD0271FFF7F0FF01236371002010BD07
:103FB0000120704750B110B502230446037105F08B
:103FC00033F9002020616071207110BD012070471D
:103FD000034600684FF0010C026801F010010CFA72
:103FE00001F122EA01010160002083F804C070475A
:103FF00070B50446866DFFF70DFF94F83530022B3F
:1040000006D00023802284F834306265012070BD20
:1040100023681A6822F016021A605A6922F0800298
:104020005A61226C054632B31A6822F008021A60FF
:104030001A6822F001021A6005E0FFF7EBFE431B4D
:10404000052B0FD823681B6813F00103F5D1E16D30
:104050003F228A400121B26084F8351084F8343060
:10406000184670BD032020220023626584F8343096
:1040700084F8350070BDA26C002AD5D1D8E700BF06
:1040800090F83530022B03D0802343650120704720
:104090000268052380F83530136823F001030020FF
:1040A0001360704790F83500704700BF044A5169AB
:1040B000014200D1704708B5506105F019F908BDFB
:1040C000003C0140704700BF002800F0B98070B587
:1040D00090F83D30044603F0FF02002B00F098807A
:1040E0002368242284F83D201A6822F001021A6015
:1040F0001A6842F400421A601A6822F400421A60F8
:1041000002F060FB63684F498B424FD84E4A9042A1
:104110007CD94E4D5A00A5FB0035431EB3FBF2F38C
:104120002268506820F03F0040EA95405060A90C9A
:1041300001F1010C116A21F03F0141EA0C01116209
:10414000D16940F6FC7E013321F44F4113EA0E0F92
:1041500021F0FF0161D104230B43D361D4E907307F
:104160001168034321F0C0010B4313609168D4E947
:10417000030321F40341034321F0FF010B43936048
:10418000D4E90530D168034321F0FF010B43D3602C
:104190001168002341F0010120201160236484F89C
:1041A0003D00236384F83E30184670BD284A904293
:1041B0002CD9264D274EA5FB002C2268556825F0EA
:1041C0003F0545EA9C4555604FEA9C414FF4967582
:1041D00005FB01F1A6FB0151156A890925F03F0590
:1041E000013129431162D169A56821F44F4121F0C1
:1041F000FF01ADB9013803EB4303B0FBF3F3013327
:10420000C3F30B03D3B143F40043A5E7012070BD12
:1042100080F83C20FFF756FF62E7C3F30B039BE7F0
:1042200003EB8303013803EB8303B0FBF3F30133A8
:10423000C3F30B0313B143F440438DE701238BE732
:1042400001207047A08601007F841E0083DE1B438F
:10425000FF083D00D34D62102DE9F04F054683B0B5
:104260001F468A469346FFF7D5FD95F83D30202B33
:1042700003D0022003B0BDE8F08F064605E0FFF74B
:10428000C9FD801B192800F2C1802B689A69D243AE
:1042900012F00204F3D095F83C20012AE9D0012263
:1042A00085F83C201A68D20740F195801A686C495D
:1042B00022F400621A602420002285F83D000AF0F2
:1042C000FE0A2A649146E9624FF0A0081A6842F497
:1042D00080721A60781C63D15A69D107FCD5C3F883
:1042E00010A0FFF797FD2B68064659695A6995F8A3
:1042F0003D00A02801F0020102F4806218D00A43B8
:1043000016D1002F3CD001E00A4311D1FFF782FD06
:10431000801B87422B6838BF85F83D8059695A69F0
:1043200095F83D00A02801F0020102F48062EBD173
:10433000202285F83D205A6912F0020F1A6872D1C6
:104340006FF4806142F400721A60596105E0FFF772
:1043500061FD801B19282ED82B689C69E44314F05A
:104360000204F4D009F10109D945AFD3202200237A
:1043700085F83D2085F83C3001207BE70A43D7D102
:10438000FFF748FD2B6885F83D8059695A6995F813
:104390003D00A02801F0020102F48062EED1C7E7DF
:1043A0005A69D2079BD4FFF735FD801B874217D38C
:1043B000B7B12B688EE720232C6385F83D3085F854
:1043C0003E402B6C85F83C4043F0200301202B64D9
:1043D00003B0BDE8F08F1A6842F001021A6065E789
:1043E000002320222B6385F83D2085F83E302A6C7F
:1043F000296885F83C3042F020022A640B68DC050D
:1044000002D54FF400732B64032033E720232C6381
:1044100085F83D3085F83E402B6C85F83C4043F0F4
:1044200020032B6425E742F4007200211A600191F9
:104430005A6901929A690192019A05E0FFF7EAFC34
:10444000801B1928B7D82B689B69DB4313F0020443
:10445000F4D00020202385F83D3085F83C0009E7A2
:104460000000FFFFF0B482B000240094019490F8A3
:104470003D40069E202C5AD105682C68A40525D500
:10448000334C344F2468E408A7FB0474240A04EB7B
:10449000840404EB8404019402E0AC69A70719D5F5
:1044A000019C013C0194019C002CF6D12023046363
:1044B00080F83D3080F83E40036C80F83C4043F08B
:1044C00020030364012002B0F0BC7047082ED7D04F
:1044D000012ED5D090F83C40012C28D02C68E40760
:1044E00029D52C6824F400642C604262212280F8D3
:1044F0003D20102280F83E20002202644385428D38
:10450000C6624164036B0093009B0285112B17D098
:104510002B6843F480732B60002380F83C306A687A
:10452000184642F4E0626A6002B0F0BC70470220B4
:1045300002B0F0BC70472C6844F001042C60D0E756
:10454000B6F52A0FE4D0B6F12A4FE5D1E0E700BF77
:104550003400002089B5F814F0B482B0002400942F
:10456000019490F83D40069E202C66D105682C6889
:10457000A40525D5454C464F2468E408A7FB0474E0
:10458000240A04EB840404EB8404019402E0AC6983
:10459000A70719D5019C013C0194019C002CF6D180
:1045A0002023046380F83D3080F83E40036C80F89F
:1045B0003C4043F020030364012002B0F0BC70478C
:1045C000082ED7D0012ED5D090F83C40012C34D005
:1045D000012480F83C402C68E40732D52C6824F490
:1045E00000642C604262222280F83D20102280F874
:1045F0003E20002202644385428DC6624164036B03
:104600000093438D02859BB2022B26D02A6842F488
:1046100080624FF4E0612A60009A122A16D02A685C
:1046200042F480722A60002380F83C306A681846A1
:104630000A436A6002B0F0BC7047022002B0F0BCCE
:1046400070472C6844F001042C60C7E7B6F52A0FC8
:10465000E5D0B6F12A4FE6D1E1E7202E01D0102EA9
:10466000D4D1009B122B2B6805D043F480634FF408
:10467000E0612B60D0E723F480632B602B6843F468
:1046800000634FF440712B60C6E700BF3400002088
:1046900089B5F81490F83DC00CF0280CBCF1280F37
:1046A00030D100292CD0002A2AD030B490F83C40D8
:1046B000012C82B02DD004682568ED0724D525682B
:1046C00025F400652560292580F83D5041622025AC
:1046D000002180F83E5001644285428DC362019101
:1046E00063690193A369019380F83C10019B63689F
:1046F000028543F4E0636360084602B030BC704753
:104700000120704702207047256845F001052560AB
:10471000D5E70220F1E700BF90F83DC00CF0280C6F
:10472000BCF1280F30D100292CD0002A2AD030B477
:1047300090F83C40012C82B02DD004682568ED072C
:1047400024D5256825F4006525602A2580F83D508C
:1047500041622025002180F83E5001644285428D4F
:10476000C362019163690193A369019380F83C10CE
:10477000019B6368028543F4E0636360084602B00E
:1047800030BC70470120704702207047256845F013
:1047900001052560D5E70220F1E700BF90F83D3024
:1047A000202B01D0022070472822036880F83D208A
:1047B0001A68D20703D41A6842F001021A601A6814
:1047C00042F480621A605A6842F4407200205A60D3
:1047D000704700BF704700BF704700BF704700BF01
:1047E00090F83D20016D034659B9C26C0168012A59
:1047F000826C0DD0C2F307220A61026D013202659C
:104800007047016D012909D0016D02290ED0704752
:10481000D2B20A61026D023202657047826C016891
:10482000D2B20A61026D013202657047D2B2222A09
:104830001FD0418D89B2C1B9418D89B20029E6D11D
:10484000212AE4D1026810B5546824F4E06454606D
:10485000146844F4007414602022016380F83D2041
:1048600080F83E10FFF7BAFF10BD212A0AD05B8DF9
:10487000704701680A6842F480720A60026D013272
:1048800002657047416A026811F8010B10615A8D88
:104890005962013A92B25A85704700BF704700BF13
:1048A000704700BF70B53A4B3A491B68806B82B0C5
:1048B000DB080022A1FB031301921B0A90F83D10B4
:1048C000026803EB8303C3EBC303C9B2019305E0A2
:1048D000019B013B019313689B0506D5019B002BAF
:1048E000F6D1036C43F020030364446B4CB3836B39
:1048F0000025E563F3B11668DD6326F48066166073
:104900004585256500241C65136823F001031360A9
:1049100090F83D30602B2AD001F02801282919D0C9
:104920002022002380F83D2080F83E30FEF73CFF37
:1049300002B070BD156825F4806515604385236558
:10494000E2E7836BF3B11568DC6325F480651560DD
:104950004485D7E7136843F001031360136800240C
:1049600043F480631360046380F83D10DEE70023A6
:10497000202280F83D2080F83E300364FFF790FF4E
:1049800002B070BD146824F4806414604385BBE7F2
:104990003400002089B5F81410B590F83D2090F847
:1049A0003E30102B0446D2B239D0D9B2402936D08D
:1049B00002F0280128293DD023685968080507D44A
:1049C000602A05D02021002284F83D1084F83E2082
:1049D000002222635A6812F4006234D194F83D1028
:1049E000602975D05A69500605D5626A1B69137033
:1049F000636A013363622046FEF7D6FE236C190713
:104A000004D02268536823F4E063536094F83D3087
:104A1000226C5207DBB201D5282B2FD010BD222AE1
:104A2000C6D123681A6822F400621A605A68120517
:104A3000C8D5CDE700232363236884F83D105A6866
:104A400012F40062CAD05A68606B22F400625A60A5
:104A500090F83530012B1ED0284B0365FFF710FB73
:104A60000028CBD02268606B1368202123F001035B
:104A7000136084F83D10036D9847BFE70023204979
:104A8000E16220222363204684F83D2084F83E30F2
:104A9000FEF75CFE10BDA06B184B0365FFF7F0FA44
:104AA0000028ABD023685A69510606D5626A1B6993
:104AB0001370626A2368013262621A68A06B22F086
:104AC000010220211A6084F83D10036D984795E794
:104AD000202184F83D1022645A69520606D5626A84
:104AE0001B691370626A2368013262621A6822F0DD
:104AF000010220461A60FFF7D3FE7FE7A5480008B1
:104B00000000FFFF70B5036804465868E56A94F832
:104B10003E1094F83D2010298EB0D2B25FFA81FC8D
:104B200024D0BCF1400F21D0216C002900F09680E8
:104B30005969002511F0020FC1F3400659D08605CE
:104B400059D5226C02B19D6994F83D2002F02802EB
:104B5000282A00F01F8200220C9259690C919B694F
:104B60000C930C9B84F83C200EB070BD9E69596973
:104B700011F0010F1AD1B5F52A0FF5D0B5F12A4F72
:104B8000F2D00D076DD5850540F18380626C616BB5
:104B9000D2B21A61002900F0E481CA6B002A00F049
:104BA000E0815A6842F400625A60DDE785056ED5FF
:104BB000E26AB2F52A0F00F0EA81E26AB2F12A4F06
:104BC00004BF0822E26294F83E20402A00F0D88117
:104BD0002269B2F5804F00F0B381226D002A40F0C7
:104BE000EF81626CD21102F0060242F0F0021A610B
:104BF000BAE7CD067CD402F0F702212A00F0F58056
:104C00004E0640F13281450540F12F81490700F100
:104C10002F8194F83D10628D92B2C9B2002AA3D0C0
:104C2000626A1B691370638D626A013B9BB2638584
:104C3000638D01329BB26262002B95D12A2993D1F8
:104C4000226853682225282123F48063536020467C
:104C5000256384F83D10FEF791FD85E79D6959694C
:104C600068E78D0715D5850513D594F83E20E06AD1
:104C7000256B94F83D102229D2B200F0B3810022B6
:104C80000A925A690A929B690A930A9B6CE70D077C
:104C9000E7D5750740F1F5805D682E053FF564AFF7
:104CA0000D0640F11581460540F112814D0700F1D6
:104CB000128194F83D20208D94F83E10E56AD2B21E
:104CC000C9B2002840F03B82212A00F041834029EC
:104CD0007FF44AAF222A7FF447AF628D92B2002A56
:104CE00000F0708294F83E20402A40F0B480FCE04E
:104CF000850580D594F83D505A6822F4E0625A60E8
:104D00000D965A690D921A6842F001021A600D9AC6
:104D10001A6822F480621A605A681105EDB221D532
:104D200005F0F702222A00F07A81606B026852686F
:104D300092B26285628D92B21AB1226C42F0040284
:104D400022645A6822F400625A60FFF7ABF9012826
:104D500008D0606B994B0365FFF792F910B1606B57
:104D6000036D9847638D9BB213B323685A6952074A
:104D70000AD5626A1B691370628D636A013A591C15
:104D800092B22368616262855A69560609D5626AE1
:104D90001B691370638D626A013B01329BB26262D0
:104DA0006385638D9BB21BB1236C43F004032364C2
:104DB000236C002B40F0DE802A2D00F0518194F806
:104DC0003D30282B00F05481236B222B02D0222D62
:104DD0007FF4CAAE002320222363204684F83D20BE
:104DE00084F83E30FEF7CAFCBEE60D0628D546051F
:104DF00026D54D0727D494F83D00618D89B2C0B205
:104E000000293FF4B1AE616A11F8015B1D61616276
:104E1000618D013989B26185618D89B200297FF484
:104E2000A3AE29287FF4A0AE5968282521F480611B
:104E300059602046226384F83D50FEF7B1FC93E6AA
:104E400049077FF591AE82057FF58EAE628D92B2F5
:104E5000002A3FF489AE626A12F8011B1961638D62
:104E60006262013B9BB263857EE64A077FF57CAEBA
:104E700086057FF579AE628D92B2002A3FF474AE5A
:104E80001BE05A6815053FF56FAE4A0633D4490753
:104E90007FF56AAE82057FF567AEE16A628D92B2F8
:104EA000042A00F01981628D92B2032A00F0598120
:104EB000628D92B2022A00F08A81626A1B691370C5
:104EC000638D626A013B01329BB2626263854BE68D
:104ED00049077FF549AE86057FF546AE212A00F0E9
:104EE0000381BCF1400F7FF43FAE20460EB0BDE819
:104EF0007040FFF775BC4605C9D54D07C1F3800268
:104F0000C8D494F83D1022297FF42EAE618D89B269
:104F1000032940F2CC81626A1B691370638D626A57
:104F2000013B9BB26385638D9BB20132032B6262AE
:104F30007FF41AAE2268536823F48063536013E64B
:104F400094F83D20212A626C16BF42F0010202F063
:104F5000FE02D2B21A61626B1AB1D26B002A7FF4E0
:104F600020AEA26B002A3FF4FFADD26B002A7FF483
:104F700018AEF9E520460EB0BDE87040FFF70CBD55
:104F8000226D4ABB626C02F0FE021A61ECE501225E
:104F9000E26218E65A6822F480625A602E066FEACE
:104FA00095014FF0000354BFA289228B84F83C3056
:104FB00001F001012046FEF791FBD5E5A548000868
:104FC000226D012A7FF4D0AD626CD21102F006028C
:104FD00042F0F1021A61C7E5626C42F00102D2B2FE
:104FE0001A61C1E5216D11B9402A00F0A180226D3E
:104FF00022B92169B1F5404F00F0A580628D92B2CF
:10500000002A42D103925A6903929A690392039A41
:105010001A6842F400721A6000232365A4E5A06BAD
:105020000268526892B26285628D92B21AB1226CA5
:1050300042F0040222645A6822F400625A60FFF7C8
:1050400031F801283FF48EAEA06BA14B0365FFF74A
:1050500017F800283FF486AEA06B036D984781E6F1
:1050600028222363204684F83D20FEF787FBA6E62E
:1050700000239849E16220222363204684F83D20E2
:1050800084F83E30FEF762FB6EE5628D92B2012A33
:1050900076D0628D92B2022A00F0EB801A6842F458
:1050A00080621A605A6812050ED510F5803F07D04D
:1050B00001381F2808D8884A22FA00F0C60703D50D
:1050C0005A6842F480525A60002209925A69099241
:1050D0009B690993099B9FE75A68616A22F4806281
:1050E0005A601B690B70EBE6E16A94F83D20212AB7
:1050F0007FF43AAD628D92B2002A7FF4ACAE0829FB
:1051000000F09F80202900F09C8011F5803F00F086
:105110009880596821F4E0615960112020232063B0
:1051200084F83E20204684F83D30FFF753FB1BE512
:1051300001915A6901929B690193019B14E5212A0F
:105140003FF4CBADC3E502925A6902929A6902928A
:10515000029A1A6842F480721A60236D0133236543
:1051600002E55A68042922F480625A603FF4A5AE31
:1051700002293FF4A2AE1A6822F480621A609CE60B
:1051800010F5803F00F00381082800F0D18020282E
:1051900000F0CE80122D00F03D81102800F23C81FD
:1051A0004E4A22FA00F0C10740F136811A6842F4F3
:1051B00080621A60002206925A6906929B690693E1
:1051C000069B29E75A6822F480625A60CCE40129E0
:1051D0001A6800F0D880102900F0D580042900F06A
:1051E0000A81022900F0078142F400721A60626AA3
:1051F0001B691370638D626A2168013B9BB26385F2
:105200000B69511C61625370638D2168626A013BB6
:105210009BB263854B68013223F4407320206262A5
:105220004B6084F83D0094F83E30402B00F0C38082
:105230000022122384F83E2020462363FFF7CCFA95
:1052400092E4596821F4E061596019680022202035
:1052500041F400711960226384F83D0094F83E30F7
:1052600084F83E20402B20467FF45FAFFFF7B6FA6C
:105270007AE4102840F2A8801A6822F480621A604A
:105280001A6842F400621A605A68160507D510F5CC
:10529000803F40F0A6805A6842F480525A60002253
:1052A00008925A6908929B690893089BB4E6E06AE1
:1052B000022887D0012985D809490B92096846F24E
:1052C000A810B1FBF0F101EB81010B910FE000BFE1
:1052D000A54800080000FFFF818000801400010045
:1052E000340000201A6812F4007200F09A800B9AC1
:1052F000013A0B920B990029F4D1226C606A42F0BA
:10530000200222645A6822F4E0625A601B6903702A
:10531000638D626A013B01329BB220206385626229
:1053200084F83D00204684F83E10FEF73DFA1BE469
:105330001A68002122F480621A6007915A69079264
:105340009A690792079A1A6842F400721A6063E633
:10535000082D3FF476AF202D3FF473AF15F5803F55
:105360003FF46FAF5A6822F4E0625A6011200021C6
:105370002023206384F83E10204684F83D30FFF758
:1053800029FAFFF7F1BB22F480621A602FE71A684E
:1053900022F480621A605A6812F400622FD01A68F0
:1053A000002122F480621A6004915A6904929B6978
:1053B0000493049B30E6002384F83E3020462363A8
:1053C000FFF76CFAFFF7D0BB274AC240D2077FF540
:1053D00053AF1A6842F480621A605A6815057FF567
:1053E0005EAF01381F283FF65AAF204AC240D107AE
:1053F0007FF555AF4FE742F480621A60F7E60592F9
:105400005A6905929A690592059A1A6842F40072DF
:105410001A6001E601288BD11A6822F480621A60B2
:10542000C8E61968606A21F480611960596821F43E
:10543000E06159601B690370638D013B20219BB2C1
:10544000638584F83D10636A94F83E100133402967
:1054500063627FF4EEAE84F83E2020462263FFF7BD
:105460001DFAFFF781BB00BF14000100818000809E
:1054700030B503685C695A6890F83E10E50583B062
:105480005FFA81FC33D5D1054FEA122E2FD56FF488
:1054900080725A61A2053CD4620572D50121428D09
:1054A00090F83DE0056BBCF1200F92B25FFA8EFEE2
:1054B0003DD06FF48062BCF1100F41F004015A61DD
:1054C00002D0BCF1400F03D11A6842F400721A6096
:1054D000220504D56FF4006241F008015A61036CA3
:1054E0001943016403B0BDE83040FFF755BAA50584
:1054F00003D5D1054FEA122E17D46505C4F38021D8
:1055000003D4240534D403B030BDD105FBD500212C
:10551000C5E703216FF400725A616205BFD4240508
:10552000DDD51EF0010FD5D1D9E70221F2E7CAB9C6
:105530000EF0F702212A04D0BEF1280F12D1212D3E
:1055400010D190F83D20C56A082DD2B21ED0202D72
:105550001CD0212A37D06FF480625A6125050CD502
:105560000368B7E76FF480625A6141F00401AFE766
:105570004FEA122E1EF0010FACD10029AFD103B0BB
:1055800030BD25054FF00101F4D4A8E7282AE0D169
:105590001A4AC2625A68019122F4E0625A606FF4BA
:1055A00080625A611A68009022F480621A600023B7
:1055B0002022036380F83D2080F83E30FEF7C6F8D5
:1055C000DDE90001CAE70D4DC5620263202280F8C3
:1055D0003D20002280F83E205A68019122F4E062CA
:1055E0005A606FF480625A611A68009022F48062F7
:1055F0001A60FEF7D5F8DDE90001AFE70000FFFF14
:1056000090F83D00704700BF006C7047F0B58BB05C
:10561000002800F0888090F8BD340468054603F047
:10562000FF02002B79D02046032385F8BD34E36BBD
:105630002E4613F4807308BF2B6102F00DFA56F862
:1056400010EBB446BCE80F006C460FC4BCE80F007A
:105650000FC49CE8030084E803002F1D97E80E00A8
:10566000704602F0F5F8044630B1012402232046CA
:1056700085F8BD340BB0F0BD0146286802F0F4F99E
:10568000686858B322464FF0010E214602EBC20370
:1056900005EB830302F1010C83F83C20A3F84420BE
:1056A0005FFA8CF28242C3E9121183F83DE083F87D
:1056B00040105965EAD3002204EBC40305EB8303D1
:1056C000611C83F87C42CCB28442C3E9A22283F8F5
:1056D0007D2283F88022C3F89422EDD30FCE6C464E
:1056E0000FC40FCE0FC496E8030084E8030097E8C8
:1056F0000E00286802F0F0F904460028B5D16B6A64
:1057000085F838000122934285F8BD240FD028681F
:1057100002F090FE20460BB0F0BD80F8BC2405F0EE
:10572000ABF9286880E7012420460BB0F0BD28467D
:1057300000F050FFEBE700BF10B590F8BC34012B30
:105740000446006816D0A36A0122934284F8BC2460
:1057500008D002F079F9206802F05CFE002084F89D
:10576000BC0410BDA3699342F3D0836B43F4803330
:105770008363EEE7022010BD2DE9F04F056889B084
:105780000446284602F094FE10B109B0BDE8F08F3F
:105790008346206802F05EFE0028F6D0D5F808386F
:1057A0002068C3F30D23C4F8FC3402F053FE10F05C
:1057B000020F206805F5006303931EBF436903F0E1
:1057C0000203436102F046FE10F0100F206812D071
:1057D000836923F0100383612E6AC6F34343022BCF
:1057E00006F00F0700F0E983062B00F0258383699C
:1057F00043F01003836102F02DFE070300F1838262
:10580000206802F027FE460300F12B82206802F098
:1058100021FE0028C0F29C81206802F01BFE0305D7
:1058200000F15781206802F015FE060114D52268A8
:10583000536903F00063536194F8F434002B40F093
:10584000AE82012184F8F414536DC3F38303C4F8CA
:10585000F834204600F0D4FE206802F0FBFDC004BE
:1058600000F1A081206802F0F5FD10F4005F2068CF
:1058700040F0818102F0EEFD010700F1E98120682E
:1058800002F0E8FD020671D5AA69636822F0800281
:10589000012BAA616AD994F8A322012A00F0EF83B0
:1058A000022B63D994F8C722012A00F00384032B4A
:1058B0005CD994F8EB22012A00F0B782042B55D969
:1058C00094F80F23012A00F0CA82052B4ED994F8D0
:1058D0003323012A00F02B84062B47D994F8572351
:1058E000012A00F03884072B40D994F87B23012A41
:1058F00000F04E84082B39D994F89F23012A00F038
:105900005B84092B32D994F8C323012A00F0688400
:105910000A2B2BD994F8E723012A00F075840B2B6E
:1059200024D994F80B24012A00F082840C2B1DD971
:1059300094F82F24012A00F083840D2B16D994F8B3
:105940005324012A00F0A3840E2B0FD994F8772456
:10595000012A00F0AA840F2B08D994F89B34012B5C
:1059600004D1206804F5936102F068FC206802F01D
:1059700071FDC30240F1AB806368012B40F2898066
:1059800094F86420D5F82019012A00F01782022B20
:105990007FD994F88820D5F84019012A00F0218297
:1059A000032B76D994F8AC20D5F86019012A00F0C1
:1059B0002482042B6DD994F8D020D5F88019012ABF
:1059C00000F02782052B64D994F8F420D5F8A019AB
:1059D000012A00F04883062B5BD994F81821D5F8EA
:1059E000C019012A00F05A83072B52D994F83C21A0
:1059F000D5F8E019012A00F06583082B49D994F8FD
:105A00006021D5F8001A012A00F06883092B40D9DB
:105A100094F88421D5F8201A012A00F073830A2B08
:105A200037D994F8A821D5F8401A012A00F08783C5
:105A30000B2B2ED994F8CC21D5F8601A012A00F04E
:105A40009B830C2B25D994F8F021D5F8801A012AD4
:105A500000F0A6830D2B1CD994F81422D5F8A01AB7
:105A6000012A00F0B1830E2B13D994F83822D5F80F
:105A7000C01A012A00F0BC830F2B0AD994F85C22CB
:105A8000D5F8E01A012A00F0C783102B01D9D5F808
:105A9000003B2068436903F48013436102F0DAFCA1
:105AA000870221D4206802F0D5FC400000F1C780B5
:105AB000206802F0CFFC41077FF567AE23685D6880
:105AC0006A0700F19C825A682A435A605DE62068A2
:105AD000E4E7039B9B68DF0700F18D822068436940
